:020000040800F2
:10000000000002207569000863020008650200080C
:1000100067020008690200086B0200080000000087
:100020000000000000000000000000006D02000859
:100030006F0200080000000071020008730200084F
:10004000C1690008C1690008C1690008C1690008E8
:10005000C1690008C1690008C1690008C1690008D8
:10006000C1690008C1690008C1690008C1690008C8
:10007000C1690008C1690008C1690008C1690008B8
:10008000C1690008C1690008C1690008C1690008A8
:10009000C1690008C1690008C1690008C169000898
:1000A000C1690008C1690008C1690008C169000888
:1000B000C1690008C1690008C1690008C169000878
:1000C000C1690008C1690008C1690008C169000868
:1000D000C1690008C1690008C1690008C169000858
:1000E000C1690008C1690008C1690008C169000848
:1000F000C1690008C1690008C1690008C169000838
:10010000C1690008C1690008C1690008C169000827
:10011000C1690008C1690008C1690008C169000817
:10012000C1690008C1690008C1690008C169000807
:10013000C1690008C1690008C1690008C1690008F7
:10014000C1690008C1690008C1690008C1690008E7
:10015000C1690008C1690008C1690008C1690008D7
:10016000C1690008C1690008C1690008C1690008C7
:10017000C1690008C1690008C1690008C1690008B7
:08018000C1690008C169000813
:1001880010B5054C237833B9044B13B10448AFF3C9
:1001980000800123237010BD5804002000000000D7
:1001A800D069000808B5064B1BB106480649AFF3ED
:1001B80000800648036813B1054B03B1984708BD92
:1001C80000000000D06900085C04002054040020EE
:1001D80000000000154B002B08BF134B9D46A3F5EC
:1001E800803A00218B460F461348144A121A06F02B
:1001F80057FA0F4B002B00D098470E4B002B00D01E
:1002080098470020002104000D000D48002802D066
:100218000C4806F011FB06F01BFA2000290006F036
:100228007DFB06F005FA00BF000008000000000092
:1002380000000000000000005804002074040020A2
:10024800416800084D68000882B00190019B5A1E61
:100258000192002BFAD102B070477047FEE7FEE723
:10026800FEE7FEE77047704770477047374BD3F893
:10027800882042F47002C3F88820354B1A6842F08F
:1002880001021A6000229A60196821F0847121F431
:10029800803119602F495960196882B021F4802192
:1002A8001960DA60009201921A6842F480321A608A
:1002B800274B1A6802F400320192009A0132009228
:1002C800019A1AB9009AB2F5A06FF1D11B6813F41C
:1002D800003318BF01230193019B012B05D01B4B51
:1002E8004FF000629A6002B07047194B1A6C42F0E6
:1002F80080521A64184A116841F4404111609A68A2
:100308009A609A6842F400429A609A6842F4A0524D
:100318009A60124A5A601A6842F080721A60196824
:100328000B4A8901FBD50E4B40F2057119609368A1
:1003380023F003039360936843F002039360044B34
:100348009B6803F00C03082BF9D1C8E700ED00E027
:100358000038024010300024007000401954400753
:10036800003C0240174A184B916801F00C0104291F
:1003780003D0082903D0154A18E0154A16E050683A
:10038800516810F4800F506814BF114A0F4A01F0E9
:100398003F01B2FBF1F20B494968C1F30141C0F3D7
:1003A8008810013142434900B2FBF1F21A60054A54
:1003B8009268C2F303121A4411791A68CA401A6083
:1003C800704700BF00380240040000200024F400F9
:1003D80000127A0040F0BF60024B40F40030D86051
:1003E800704700BF00ED00E0C278037810B50AB38B
:1003F800164A4478D268D243C2F30222C2F10401F9
:10040800C9B204FA01F10F2444FA02F28478C9B29D
:1004180022400A4303F1604303F561431201D2B25B
:1004280083F8002303780122590903F01F0302FA15
:1004380003F306E05909012203F01F0302FA03F34C
:100448002031034A42F8213010BD00BF00ED00E022
:1004580000E100E021F0604121F07F01014B0843F9
:100468009860704700ED00E0044B1A6909B1104329
:1004780001E022EA00001861704700BF00ED00E0CB
:10048800044B1A6804280CBF42F0040222F004024C
:100498001A60704710E000E008B54FF48070012141
:1004A80003F0C4FF4FF480700021BDE8084003F05A
:1004B800BDBF43680A6823F0407323F48073134375
:1004C8000A7943EA02234360CA680B691A438B68B6
:1004D80010B51A438468084B234013434A7943EA0A
:1004E800420383600B7DC26A013B22F47002DBB2D7
:1004F80042EA0353C36210BDFDF7FFC00023036047
:10050800037143718360C3600361012303757047FE
:10051800074A084B516810B50B4090E812000C438D
:100528008168C068214301430B43536010BD00BF7D
:1005380000230140E030FCFF002303604360836038
:10054800C3607047836811B143F0010301E023F0F1
:10055800010383607047436823F4400323F4007366
:10056800194341607047416282627047436823F0D3
:100578001F03194341607047044B5A6810B142F495
:10058800000201E022F400025A6070470023014093
:10059800044B5A6810B142F4800201E022F4800250
:1005A8005A60704700230140092970B50DD9A1F19F
:1005B8000A0404EB4404C6680725A54026EA050595
:1005C800A34045EA0304C4600BE0066901EB41045B
:1005D8000725A54026EA050503FA04F445EA0403BD
:1005E8000361062A0CD8013A446B02EB82021F23EE
:1005F800934024EA030301FA02F21A43426370BDEE
:100608000C2A0CD8073A046B02EB82021F23934092
:1006180024EA030301FA02F21A43026370BD0D3A99
:10062800C46A02EB82021F23934024EA030301FAFF
:1006380002F21A43C26270BD836843F0804383604C
:1006480070478068C0F380507047836811B143F4E5
:10065800806301E023F4806383607047836811B18D
:1006680043F0020301E023F002038360704743680C
:10067800013923F4604343EA4133436070474368D8
:1006880011B143F4006301E023F400634360704751
:10069800C06C80B27047014B18687047082301404E
:1006A800836811B143F4807301E023F4807383609D
:1006B8007047836811B143F4007301E023F40073B9
:1006C80083607047044B5A6810B142F4005201E04D
:1006D80022F400525A60704700230140092970B57E
:1006E8000DD9A1F10A0404EB4404C6680725A54006
:1006F80026EA0505A34045EA0304C4600BE0066941
:1007080001EB41040725A54026EA050503FA04F490
:1007180045EA04030361846B931CC4F301555B1B16
:10072800DBB203EB83031F229A4024EA02049940B8
:1007380044EA0103836370BD836B013923F44013DA
:1007480043EA01538363704782B000230193019009
:10075800019B19440191019B1A6002B0704783689C
:1007680023F47023194381607047836823F440138E
:10077800194381607047836843F48003836070473E
:100788008068C0F380507047436811B143F48063B8
:1007980001E023F4806343607047436811B143F478
:1007A800805301E023F480534360704782B00023F4
:1007B80001930190019B283319440191019B18680A
:1007C80080B202B070470123C9B203FA01F143684D
:1007D8000AB1194301E023EA010141607047036847
:1007E80019420CBF002001207047C94301607047BF
:1007F8004368006810EA112007D0C9B2012202FA42
:1008080001F119420CBF0020012070476FEA112145
:100818000160704708B50B4B984207D14FF0007044
:10082800012103F0F7FD4FF0007006E04FF0806003
:10083800012103F0EFFD4FF080600021BDE8084082
:1008480003F0E8BD00640040036823F0020303607E
:10085800036843F0010303604FF480334268D20712
:1008680001D4013BFAD1436813F0010355D08B79C9
:10087800012B03680CBF43F0800323F0800303605F
:10088800CB79012B03680CBF43F0400323F04003EE
:1008980003600B7A012B03680CBF43F0200323F09D
:1008A800200303604B7A012B03680CBF43F010034D
:1008B80023F0100303608B7A012B03680CBF43F00D
:1008C800080323F008030360CB7A012B03680CBFED
:1008D80043F0040323F0040303608B78CA789B0772
:1008E80043EA02630A7943EA02434A7943EA025334
:1008F8000A88013A1343C361036823F001030360C4
:100908004FF480334268D20701D5013BFAD14068E1
:1009180000F0010080F00100704718467047837AA4
:1009280001219940344BD3F8002242F0010270B5FE
:10093800C3F80022D3F81C22CC432240C3F81C225F
:10094800027BA2B9D3F80C22C68845882240C3F896
:100958000C22827A483245EA064543F83250038829
:10096800857A8288ED0043EA0242244B5A51037B80
:10097800012B15D1204B0688D3F80C2245880A4351
:10098800C3F80C22827A483245EA064543F83250C9
:10099800C388857A8288ED0043EA0242174B5A5190
:1009A800C37A154A1BB9D2F80432234002E0D2F8C0
:1009B80004320B430589C2F804320F4B2DB9D2F823
:1009C80014522C40C2F8144206E0012D04D1D3F889
:1009D80014220A43C3F81422427B012A04D1D3F813
:1009E8001C221143C3F81C12D3F8002222F0010282
:1009F800C3F8002270BD00BF006400404466004098
:100A080000238371C371037243728372C37283704C
:100A1800C3700323037102234371012303807047CA
:100A28000D4BD3F8002242F00102C3F80022D3F89C
:100A3800002222F47C5222F00E02C3F80022D3F8DE
:100A4800002242EA0020C3F80002D3F8002222F074
:100A58000102C3F80022704700640040036811B126
:100A680043F4803301E023F4803303607047036864
:100A780099B143F080030360D0F8843143F4807364
:100A8800C0F88431D0F8943143F48073C0F89431BD
:100A9800D0F8A43143F4807312E023F0800303609C
:100AA800D0F8843123F48073C0F88431D0F89431BD
:100AB80023F48073C0F89431D0F8A43123F4807300
:100AC800C0F8A43170478368F0B55C0107D4836827
:100AD8001A0106D48368DB0005D4042252E0002200
:100AE80002E0012200E0022200EB0213D3F8804169
:100AF80004F00104C3F880410C7A4D7A44B90C68BB
:100B0800D3F8806145EA44543443C3F8804108E08F
:100B18004E68D3F8807144EAC6043C432543C3F8C1
:100B280080518C7A04F00F048C72D3F8844124F03D
:100B38000F04C3F884418D7AD3F884412C43C3F859
:100B480084414D7B8C7B2D0445EA0465CC7A254392
:100B58000C7B00EB021045EA0425C0F8885100F52B
:100B6800C474487C8D7C000440EA0560CD7B097C18
:100B7800284340EA01216160D3F8801141F0010166
:100B8800C3F880111046F0BD012908D004D302290A
:100B980016D182680C4B04E082680C4B01E0826835
:100BA8000B4B1340094A934208D001D853B907E0C8
:100BB800074A934202D0044A934203D10120704766
:100BC8000220704700207047000003100300000453
:100BD80000030008012907D002D3022908D0704772
:100BE800836843F0800306E0836843F4004302E02F
:100BF800836843F400038360704700EB011330B54A
:100C0800D3F8B04104F00404E4B2147224B9D3F860
:100C1800B041640D146003E0D3F8B041E4085460B7
:100C2800D3F8B04104F002045472D3F8B44104F08C
:100C38000F049472D3F8B4311B0AD37400EB011378
:100C480003F5DC74D3F8B851D572D3F8B8512D0A2E
:100C58001573D3F8B8512D0C5573D3F8B8311B0E52
:100C680093736368D37363681B0A137463681B0CFC
:100C7800537463681B0E937421B9C36843F020034F
:100C8800C36030BD036943F02003036130BD21B95F
:100C9800C36843F02003C3607047036943F020032F
:100CA8000361704709B9C06802E0012903D10069EE
:100CB80000F0030070470020704799B9036823F0DB
:100CC800030343F0010303604FF48033426802F0EA
:100CD8000302012A01D0013BF8D1406800F003006B
:100CE800012828E0012911D1036823F003030360D8
:100CF8004FF480334268920701D0013BFAD1436830
:100D080013F0030F14BF002001207047022916D1E9
:100D1800036823F0030343F0020303604FF48033B6
:100D2800426802F00302022A01D0013BF8D1406870
:100D380000F00300022814BF0020012070470020A3
:100D48007047036823F0030343F00203036040681D
:100D580000F00300831E584258417047036823F08F
:100D6800020303604FF480334268920701D5013BC8
:100D7800FAD1406880F00200C0F3400070478069F3
:100D880000F0700070478069000E70478069C0F3FA
:100D98000740704743690AB1194301E023EA01019A
:100DA8004161704711F4700F01D083690BE0CB01EA
:100DB80001D5436807E00A0101D5836803E08B0188
:100DC8004CBFC3680369C3F313030B420CBF002075
:100DD800012070470A4B994202D100238361704772
:100DE8008A01C1F3130301D5C36070474A0101D5D5
:100DF800036170470A014CBF83604360704700BFBE
:100E08007000F03043690B405CD0402942D010D8C4
:100E1800042933D005D8012927D0022954D1C06824
:100E28002FE010292CD0202930D008294CD1C068B7
:100E380035E0B1F5006F3BD00CD8B1F5007F31D06B
:100E4800B1F5806F32D0B1F5807F3DD1806900F077
:100E580001007047B1F5803F1ED0B1F5003F1DD0AD
:100E6800B1F5004F30D1406829E0806800F00130CA
:100E780020F08070003018BF01207047C06806E07D
:100E8800006910F0030018BF012070470069C0F323
:100E9800C0007047006902E04068F8E74068C0F3A6
:100EA800001070478069C0F340007047806906E011
:100EB800836913F0700F0CBF002001207047C0F346
:100EC800800070471846704700207047B1F5807F52
:100ED80035D00CD8082924D004D801291CD00429DD
:100EE8001DD0704720291FD040291FD07047B1F569
:100EF800006F22D006D8B1F5007F20D0B1F5806F01
:100F08001DD07047B1F5803F13D0B1F5003F12D026
:100F1800B1F5004F15D110E00A4B836070470823E4
:100F280000E01023C3607047082300E0102303612A
:100F38007047082304E0102302E0002383610423A0
:100F48004360704701010100014B01229A6070471C
:100F580000300240014B18601868704700300240AA
:100F680000EB81018842044B03D050F8042B1A602F
:100F7800F8E71868704700BF00300240014B186856
:100F8800704700BF00300240014B1871704700BF26
:100F980000300240014B1879704700BF0030024012
:100FA8002DE9F0418EB015460746002606A80C46E6
:100FB8009846019600F072FFC02D10D0B5F5807FDD
:100FC80021D0802D3AD1059623681BBA0A9363680D
:100FD8001BBA0B93A3681BBA0C93E3682CE04FF47D
:100FE8008073059323681BBA089363681BBA099337
:100FF800A3681BBA0A93E3681BBA0B9323691BBA4D
:101008000C93636918E04FF40073059323681BBAC7
:10101800069363681BBA0793A3681BBA0893E3682F
:101028001BBA099323691BBA0A9363691BBA0B930A
:10103800A3691BBA0C93E3691BBA0D9307BB00F0B5
:1010480053FF0423029302A838230393049700F064
:10105800E0FE06A800F00EFF012000F04DFF102072
:1010680001F04AF8019B01330193019BB3F5803FDE
:1010780002D00028F3D101E0002738B9042303E0A7
:1010880006A800F0F7FE002302930127202302A8F8
:1010980003938023049300F0BCFE00F025FF012099
:1010A80000F02AFF01F020F800283AD0159D4446A8
:1010B800149AC8EB040393422FD277B3206800F048
:1010C80027FF606800F024FFA06800F021FFE068B7
:1010D80000F01EFF002310340193102001F00CF8DB
:1010E800019B01330193019BB3F5803F02D0002897
:1010F800F3D102E000270028DAD100F00FFF2860C2
:1011080000F00CFF686000F009FFA86000F006FF1F
:10111800103545F8040C0127CAE7002000F0ECFE62
:1011280038460EB0BDE8F0812DE9F04693B01F4671
:1011380081464FF0000A0AA80D4614461A9ECDF8BB
:1011480004A000F0ABFEC02F11D0B7F5807F22D0ED
:10115800802F3BD1CDF814A023681BBA0E93636887
:101168001BBA0F93A3681BBA1093E3682CE04FF4E3
:101178008073059323681BBA0C9363681BBA0D939D
:10118800A3681BBA0E93E3681BBA0F9323691BBAB3
:101198001093636918E04FF40073059323681BBA32
:1011A8000A9363681BBA0B93A3681BBA0C93E36892
:1011B8001BBA0D9323691BBA0E9363691BBA0F936D
:1011C800A3691BBA1093E3691BBA11932B681BBA66
:1011D80006936B681BBA0793AB681BBA0893EB6856
:1011E8001BBA0993B9F1000F21D100F07DFE042349
:1011F800029302A838230393CDF8109000F009FE5B
:101208000AA800F037FE012000F076FE102000F05A
:1012180073FF019B01330193019BB3F5803F02D01B
:101228000028F3D101E0002738B9042303E00AA815
:1012380000F020FE0023029301272823039302A82D
:101248008023049300F0E5FD06A800F031FE00F0CD
:101258004BFE012000F050FE00F046FF002839D078
:101268001C9D34461B9AA31B93422FD277B3206848
:1012780000F04EFE606800F04BFEA06800F048FEEB
:10128800E06800F045FE002310340193102000F0C0
:1012980033FF019B01330193019BB3F5803F02D0DB
:1012A8000028F3D102E000270028DBD100F036FE49
:1012B800286000F033FE686000F030FEA86000F09F
:1012C8002DFE103545F8040C0127CBE7002000F06F
:1012D80013FE384613B0BDE8F0862DE9F04693B00A
:1012E8001F4682464FF000090AA80D4614461A9E6A
:1012F800CDF8049000F0D2FDC02F11D0B7F5807F53
:1013080022D0802F3BD1CDF8149023681BBA0E93BE
:1013180063681BBA0F93A3681BBA1093E3682CE0A9
:101328004FF48073059323681BBA0C9363681BBA48
:101338000D93A3681BBA0E93E3681BBA0F93236936
:101348001BBA1093636918E04FF400730593236880
:101358001BBA0A9363681BBA0B93A3681BBA0C9356
:10136800E3681BBA0D9323691BBA0E9363691BBA12
:101378000F93A3691BBA1093E3691BBA11932B68E7
:101388001BBA06936B681BBA0793AB681BBA089322
:10139800EB681BBA0AA8099300F06CFDBAF1000FBC
:1013A80001D1042300E0002302933023039302A811
:1013B8008023049300F02DFD06A800F079FD00F0CD
:1013C80093FD012000F098FD00F08EFE002839D032
:1013D8001C9D344601271B9AA31B93422ED26FB340
:1013E800206800F095FD606800F092FDA06800F0AC
:1013F8008FFDE06800F08CFD00231034019310206D
:1014080000F07AFE019B01330193019BB3F5803F05
:1014180002D00028F3D100E070B900F07FFD286009
:1014280000F07CFD686000F079FDA86000F076FDB2
:10143800103545F8040CCDE70027CCE7002000F074
:101448005BFD384613B0BDE8F0862DE9F04F97B044
:101458004FF0000C06460EA88DE80810219FDDF815
:101468008C80CDF814C003910292DDF888A0259DE8
:10147800249C00F013FD009B0399029ADDF804C038
:10148800C02B4FEAC80B4FEAC70911D0B3F5807FCC
:1014980022D0802B3BD1CDF824C013681BBA1293FD
:1014A80053681BBA139393681BBA1493D3682CE040
:1014B8004FF48073099313681BBA109353681BBACF
:1014C800119393681BBA1293D3681BBA13931369C9
:1014D8001BBA1493536918E04FF400730993136807
:1014E8001BBA0E9353681BBA0F9393681BBA1093D9
:1014F800D3681BBA119313691BBA129353691BBAA9
:10150800139393691BBA1493D3691BBA15930B6889
:101518001BBA0A934B681BBA0B938B681BBA0C93C4
:10152800CB681BBA012E0D9340F0D08000F0DCFC94
:101538000EA800F09FFC0AA800F0BAFC4FF40022A5
:101548000023079206A8802206930892009300F0D1
:1015580060FC009B184600F0BDFC304600F0CCFC57
:1015680000F0C2FD0128FBD0B8F1000F01D101261F
:1015780036E04FF4803000F0ADFC012000F0BCFCF8
:1015880000F0B2FD08B1564613E000207CE10120CE
:1015980000F0B2FD0028FAD0306800F0B9FC70689D
:1015A80000F0B6FCB06800F0B3FCF06800F0B0FCE6
:1015B8001036CAEB06034345E9D3002305931020F0
:1015C80000F09AFD059B01330593059BB3F5803F19
:1015D80002D00028F3D1CAE7D0F1010638BF0026AF
:1015E800002F52D04FF4003000F074FC012000F0BE
:1015F80083FC00F079FD0028C7D0DDF88080209AB0
:10160800C2EB0803BB4240D2002E3ED0012000F0BE
:1016180073FD0028FAD0D8F8000000F079FCD8F85B
:10162800040000F075FCD8F8080000F071FCD8F848
:101638000C0000F06DFC002308F110080593102041
:1016480000F05AFD059B01330593059BB3F5803FD8
:1016580007D00028F3D1042000F04EFD0028FAD06E
:1016680003E000260028CAD1F5E700F057FC206007
:1016780000F054FC606000F051FCA06000F04EFCEB
:10168800103444F8040C0126B9E74FF4403000F058
:1016980021FC012000F030FC00F026FD00283FF47A
:1016A80074AF002420BA00F033FC9BFA8BF000F0F2
:1016B8002FFC20BA00F02CFC99FA89F000F028FCE5
:1016C800042000F019FD0028FAD0CDE000F00CFC51
:1016D8000EA800F0CFFB0AA800F0EAFB042306934B
:1016E8004FF40023079306A88023089300F091FB8A
:1016F800002000F0EFFB012000F0FEFB00F0F4FCFE
:101708000128FBD0B8F1000F01D1012636E04FF4D3
:10171800803000F0DFFB012000F0EEFB00F0E4FC7D
:1017280000283FF432AF5646CAEB0603434512D2AF
:10173800012000F0E1FC0028FAD0306800F0E8FB56
:10174800706800F0E5FBB06800F0E2FBF06800F0BC
:10175800DFFB1036E8E700230593102000F0CCFCEF
:10176800059B01330593059BB3F5803F02D0002804
:10177800F3D1CAE7D0F1010638BF0026002F53D0B5
:101788004FF4003000F0A6FB012000F0B5FB00F09C
:10179800ABFC00283FF4F9AEDDF88080209AC2EB5C
:1017A8000803BB4240D2002E3ED0012000F0A4FC2A
:1017B8000028FAD0D8F8000000F0AAFBD8F80400F6
:1017C80000F0A6FBD8F8080000F0A2FBD8F80C003F
:1017D80000F09EFB002308F110080593102000F08C
:1017E8008BFC059B01330593059BB3F5803F07D020
:1017F8000028F3D1042000F07FFC0028FAD003E091
:1018080000260028CAD1F5E700F088FB206000F028
:1018180085FB606000F082FBA06000F07FFB103465
:1018280044F8040C0126B9E74FF4403000F052FBAD
:10183800012000F061FB00F057FC00283FF4A5AE42
:10184800002420BA00F064FB9BFA8BF000F060FBE8
:1018580020BA00F05DFB99FA89F000F059FB0420EA
:1018680000F04AFC0028FAD000F058FB286000F08D
:1018780055FB686000F052FBA86000F04FFBE86081
:10188800002000F039FB304617B0BDE8F08F2DE995
:10189800F04FA1B04FF0000994460191102249463B
:1018A80083460CA8CDF800C01D46BDF8A8A0DDF8F9
:1018B800B0802E9C2F9FCDF80C90309E04F0F0FE47
:1018C8004946102210A804F0EBFE14A8494610223D
:1018D80004F0E6FEDDF800C014B9DDF8B49031E09C
:1018E800B4F57F4F05D2220A7C703A700234022187
:1018F8000CE0FF223A70FE227C717A7087F8029021
:1019080087F8039087F80490063406210022A24243
:1019180007D02D9B781813F802E000F802E0013296
:10192800F5E7230709D024F00F021032944203D8B8
:10193800002139550134F9E71446B94614B140225B
:101948008DF83020329B9DF83000CCF10E0101F06B
:101958000701DAB20143023A022092FBF0F202F0E8
:10196800070241EAC2028DF83020002262450CAF1E
:1019780006D001990132114411F8011CB954F5E758
:1019880062460C2A04D801320CA900205054F8E70A
:101998004FEA18228DF83E209DF830208DF83F80C0
:1019A80002F007028DF8402001220CF101018A4261
:1019B80005D20CA9505C10A950540132F5E79DF8E6
:1019C8004F2018A842F001028DF84F2000F066FA67
:1019D800BAF1C00F12D0BAF5807F23D0BAF1800FC8
:1019E8003BD1002307932B681BBA1C936B681BBA67
:1019F8001D93AB681BBA1E93EB682CE04FF4807301
:101A080007932B681BBA1A936B681BBA1B93AB68B6
:101A18001BBA1C93EB681BBA1D932B691BBA1E9348
:101A28006B6918E04FF4007307932B681BBA18937F
:101A38006B681BBA1993AB681BBA1A93EB681BBA8D
:101A48001B932B691BBA1C936B691BBA1D93AB695B
:101A58001BBA1E93EB691BBA1F93109D2BBA0893F0
:101A6800119B1BBA0993129B1BBA0A93139B1BBAAF
:101A7800BBF1010F0B9340F0D38000F035FA18A8A2
:101A880000F0F8F908A800F013FA4FF00812002344
:101A9800059204A8802206920493009300F0B9F9F5
:101AA800009B184600F016FA0C9800F031FA786896
:101AB80000F02EFAB86800F02BFAF86800F028FA5F
:101AC800584600F019FA00F00FFB0128FBD00CB9BA
:101AD800012436E04FF4803000F0FCF9012000F0DA
:101AE8000BFA00F001FB08B14F4613E0002082E139
:101AF800012000F001FB0028FAD0386800F008FA4D
:101B0800786800F005FAB86800F002FAF86800F0A2
:101B1800FFF91037C9EB0703A342E9D30023039366
:101B2800102000F0E9FA039B01330393039BB3F5FC
:101B3800803F02D00028F3D1CAE7D0F1010438BFB2
:101B48000024B8F1000F4BD04FF4003000F0C2F978
:101B5800012000F0D1F900F0C7FA0028C6D02B9F69
:101B68002B997B1A43453BD2002C39D0012000F039
:101B7800C3FA0028FAD0386800F0CAF9786800F08B
:101B8800C7F9B86800F0C4F9F86800F0C1F9002393
:101B980010370393102000F0AFFA039B013303932F
:101BA800039BB3F5803F07D00028F3D1042000F051
:101BB800A3FA0028FAD003E000240028D0D1F5E7E2
:101BC80000F0ACF9306000F0A9F9706000F0A6F9F7
:101BD800B06000F0A3F9103646F8040C0124BFE702
:101BE8004FF4403000F076F9012000F085F900F05C
:101BF8007BFA00283FF47AAF284600F089F911985B
:101C080000F086F9129800F083F9139820F080709C
:101C180000F07EF9042000F06FFA0028FAD0D0E036
:101C280000F062F918A800F025F908A800F040F9BA
:101C3800042304934FF00813059304A88023069304
:101C480000F0E7F8002000F045F90C9800F060F982
:101C5800786800F05DF9B86800F05AF9F86800F0A3
:101C680057F9012000F048F900F03EFA0128FBD0AE
:101C78000CB9012436E04FF4803000F02BF9012034
:101C880000F03AF900F030FA00283FF42FAF4F4641
:101C9800C9EB0703A34212D2012000F02DFA002855
:101CA800FAD0386800F034F9786800F031F9B8688B
:101CB80000F02EF9F86800F02BF91037E8E7002358
:101CC8000393102000F018FA039B01330393039B3E
:101CD800B3F5803F02D00028F3D1CAE7D0F1010460
:101CE80038BF0024B8F1000F4CD04FF4003000F09A
:101CF800F1F8012000F000F900F0F6F900283FF4AF
:101D0800F5AE2B9F2B9ABB1A43453BD2002C39D0FA
:101D1800012000F0F1F90028FAD0386800F0F8F84E
:101D2800786800F0F5F8B86800F0F2F8F86800F0A4
:101D3800EFF8002310370393102000F0DDF9039B20
:101D480001330393039BB3F5803F07D00028F3D1F9
:101D5800042000F0D1F90028FAD003E0002400287C
:101D6800D0D1F5E700F0DAF8306000F0D7F870600D
:101D780000F0D4F8B06000F0D1F8103646F8040C42
:101D88000124BFE74FF4403000F0A4F8012000F030
:101D9800B3F800F0A9F900283FF4A8AE284600F0EF
:101DA800B7F8119800F0B4F8129800F0B1F8139849
:101DB80020F0807000F0ACF8042000F09DF90028B5
:101DC800FAD000F0ABF8149000F0A8F8159000F0E5
:101DD800A5F8169000F0A2F800231790329A9342C3
:101DE80005D014AA31999A5CCA540133F6E7002049
:101DF80000F082F8204621B0BDE8F08F08B5102029
:101E0800012102F0EFFA10200021BDE8084002F09D
:101E1800E9BA144B1A6822F4002222F0380210B5ED
:101E28001A601968426811431960196821F0C001E5
:101E380019601C6881682143196032F0180107D0C5
:101E48001A6822F440721A601968C2680A431A6054
:101E58001A6822F004021A60196802680A431A60B4
:101E680010BD00BF0000065000230360436083607C
:101E7800C3607047084B02681A6242685A628268F7
:101E88009A62C268DA6202691A6342695A638269AD
:101E98009A63C269DA637047000006500023036042
:101EA80043608360C360036143618361C3617047BA
:101EB800044B02681A6442685A6482689A64C26869
:101EC800DA647047000006500023036043608360B3
:101ED800C3607047034B1A6822F4403210431860FD
:101EE800704700BF00000650024B1A6842F4804257
:101EF8001A60704700000650044B1A6810B142F48B
:101F0800004201E022F400421A60704700000650C7
:101F1800014B9860704700BF00000650014BD8681D
:101F2800704700BF0000065073B500230193364B7D
:101F38001A6922F001021A611B6813F0080F0CBF1E
:101F480015221122304B5D68019C01340194019ED9
:101F58004FF6FF74A64202EA05051C4601D0012D82
:101F6800F0D16468284B1440012C49D11A6922F039
:101F780002021A611A6822F400421A601D68234A94
:101F88002A4002601A6C42605A6C82609A6CC26085
:101F9800DA6C02610A6842614A6882618A68C261D1
:101FA800CA6802620A6942624A6982628A69C262CE
:101FB800CA6902631A6D42635A6D82639A6DC2637D
:101FC800DA6D02641A6E42645A6E82649A6EC26452
:101FD800DA6E02651A6F42655A6F82659A6FC2653A
:101FE800DA6F0266D3F880204266D3F884208266CE
:101FF800D3F88820C266D3F88C300367204600E007
:10200800002002B070BD00BF00000650FC030B00AA
:10201800214B02681A6042691A6282695A62C2696F
:102028009A62026ADA62426A1A63826A5A63C26A06
:102038009A63026BDA6342681A6482685A64C268F7
:102048009A640269DA64426B1A65826B5A65C26BDC
:102058009A65026CDA65426C1A66826C5A66C26CC2
:102068009A66026DDA66426D1A67826D5A67C26DAA
:102078009A67026EDA67426EC3F88020826EC3F8F0
:102088008420C26EC3F88820026FC3F88C201A68B7
:1020980042F400421A60704700000650054B1A6966
:1020A80009B1104303E022EA000000F0FF001861C4
:1020B800704700BF00000650054B5A6909B110432C
:1020C80003E022EA000000F0FF005861704700BFFB
:1020D80000000650034BDB6918420CBF00200120AA
:1020E800704700BF00000650024B1868C0F3C030AC
:1020F800704700BF00000650054B10F0200F14BFBA
:102108009B695B6803420CBF00200120704700BF39
:10211800000006502DE9F0418EB00646002506A8BD
:102128000C46984617460195FFF7B8FE012E1CBFCE
:10213800042302934FF01003039302A84FF0800387
:1021480008BF02950493FFF764FE23681BBA08933F
:1021580063681BBA06A80993FFF78CFEFFF7C4FE55
:102168000120FFF7C9FEFFF7BFFF60B3149D0024ED
:102178000126444523D216B33859FFF7C9FE3B1947
:102188005868FFF7C5FE002301931020FFF7B4FF3E
:10219800019B01330193019BB3F5803F02D00028D6
:1021A800F3D101E0002640B9FFF7B8FE2860FFF739
:1021B800B5FE083545F8040C01260834D9E7002097
:1021C800FFF79AFE30460EB0BDE8F0812DE9F043E6
:1021D80093B0814600260AA80C46984615461A9FD1
:1021E8000196FFF75BFEB9F1010F1CBF04230293B0
:1021F8004FF01803039302A84FF0800308BF02961C
:102208000493FFF706FE23681BBA0C9363681BBA96
:102218000AA80D93FFF72EFE2B681BBA06936B686E
:102228001BBA06A80793FFF743FEFFF75DFE0120E0
:10223800FFF762FEFFF758FF70B31B9D00240126CD
:10224800BC4225D226B358F80400FFF761FE08EB1C
:1022580004035868FFF75CFE002301931020FFF782
:102268004BFF019B01330193019BB3F5803F02D0E3
:102278000028F3D101E0002640B9FFF74FFE28609F
:10228800FFF74CFE083545F8040C01260834D7E75B
:102298000020FFF731FE304613B0BDE8F0832DE98A
:1022A800F0418EB00025064606A80C46984617460B
:1022B8000195FFF7F3FD012E1CBF0423029302A82A
:1022C8004FF0800308BF029504930395FFF7A1FD23
:1022D80023681BBA089363681BBA0993A3681BBADF
:1022E8000A93E3681BBA0B9323691BBA0C936369BF
:1022F8001BBA06A80D93FFF7BDFDFFF7F5FD0120FA
:10230800FFF7FAFDFFF7F0FE60B3149D00240126E5
:10231800444523D216B33859FFF7FAFD3B195868DC
:10232800FFF7F6FD002301931020FFF7E5FE019B60
:1023380001330193019BB3F5803F02D00028F3D10C
:1023480001E0002640B9FFF7E9FD2860FFF7E6FD48
:10235800083545F8040C01260834D9E70020FFF7B2
:10236800CBFD30460EB0BDE8F0812DE9F04393B0C7
:10237800814600270AA80C46984615461A9E0197DA
:10238800FFF78CFDB9F1010F1CBF042302934FF036
:102398000803039302A84FF0800308BF0297049331
:1023A800FFF737FD23681BBA0C9363681BBA0D93BC
:1023B800A3681BBA0E93E3681BBA0F9323691BBA71
:1023C800109363691BBA0AA81193FFF753FD2B6892
:1023D8001BBA06936B681BBA06A80793FFF768FD3C
:1023E800FFF782FD0120FFF787FDFFF77DFE70B341
:1023F8001B9D00240127B44225D227B358F80400B6
:10240800FFF786FD08EB04035868FFF781FD0023FA
:1024180001931020FFF770FE019B01330193019B8C
:10242800B3F5803F02D00028F3D101E0002740B97E
:10243800FFF774FD2860FFF771FD083545F8040CB7
:1024480001270834D7E70020FFF756FD384613B0B8
:10245800BDE8F08308B54FF00050012101F0DAFF24
:102468004FF000500021BDE8084001F0D3BF0A4BEF
:1024780030B51A6840F6FE75854022EA050591E8F0
:10248800140014438A68C96822430A4302FA00F018
:102498002843186030BD00BF00740040002303606B
:1024A80043608360C3607047064B012219B1196805
:1024B80082400A4303E01968824021EA02021A6056
:1024C800704700BF00740040064B0009012219B193
:1024D800596882400A4303E05968824021EA0202AF
:1024E8005A60704700740040044B5A6810B142F0BB
:1024F800030201E022F003025A60704700740040B2
:10250800054B814012B11A68114302E01A6822EAA9
:1025180001011960704700BF0074004082B00023B9
:102528000193054B0193019B083318440190019BCB
:10253800196002B0704700BF0074004082B00023E9
:102548000193054B0193019B143318440190019B9F
:10255800196002B0704700BF007400400828044B9F
:102568000CBF42EA012142EA0141C150704700BF55
:102578002074004082B000230193064B0193019B15
:102588002C3303EB90000190019B186880B202B0D5
:10259800704700BF00740040064B4FF4805219B1D9
:1025A800196882400A4303E01968824021EA02025E
:1025B8001A60704700740040054B814012B11A68D8
:1025C800114302E01A6822EA01011960704700BF4E
:1025D80000740040034B5B6B814019420CBF002024
:1025E8000120704700740040014B814059637047D7
:1025F80000740040054B81401A68586B084003D0AE
:1026080011420CBF00200120704700BF0074004039
:10261800014B81405963704700740040014B1868B2
:10262800000C7047002004E0024B1868C0F30B0050
:10263800704700BF002004E0044B5A6809B11043FA
:1026480001E022EA00005860704700BF002004E063
:10265800044B9A6809B1104301E022EA000098602F
:10266800704700BF002004E0044BDA6809B110434A
:1026780001E022EA0000D860704700BF002004E0B3
:10268800054B00221F211A60DA6059619A61DA61EC
:102698001A625A62704700BF0000055010B50188E1
:1026A80044880D4B214384881A682143C48822F446
:1026B80080422143048922F001021A60214344899F
:1026C8001A688089214322F47F62014322F00202C2
:1026D80089B20A431A6010BD000005500023038028
:1026E80043808380C380038143818381704743880B
:1026F8000288818843EA0242034B1A62C28842EA8E
:1027080001425A62704700BF00000550044B1A6826
:1027180010B142F0040201E022F004021A6070478E
:102728000000055082784378120442EA03220378B5
:102738001A43C37842EA0362014B9A61704700BFAB
:1027480000000550044B1A6810B142F0080201E07D
:1027580022F008021A60704700000550044B1A68FE
:1027680010B142F4804201E022F480421A607047BE
:1027780000000550044B1A6810B142F0010201E054
:1027880022F001021A60704700000550014B986A58
:10279800704700BF00000550044BDA6809B11043C8
:1027A80002E0C04380B21040D86070470000055076
:1027B800020B064B01D19B6803E0022A0CBF5B6841
:1027C8001B6903420CBF0020012070470000055020
:1027D800014B5861704700BF00000550034B1B694F
:1027E80018420CBF00200120704700BF00000550B0
:1027F800014B5861704700BF00000550036823F083
:10280800010303600023036043608360C3600361C6
:1028180021234361294B984217D0294B98421BD05A
:10282800284B984220D0284B984225D0274B9842D5
:102838002AD0274B98422ED0264B984232D0264B8E
:10284800984236D0254B984203D13D2243F8082CB4
:102858007047234B984204D14FF4746243F8202CFC
:102868007047204B984204D14FF4741243F8382C27
:1028780070471D4B984204D14FF0746243F8502CB6
:1028880070471A4B984203D1194A43F8642C704791
:10289800184B984203D1184A43F87C2C7047174BC1
:1028A800984203D1164A43F8942C7047154B984226
:1028B80003D14FF03D5243F8AC2C704710600240F2
:1028C8002860024040600240586002407060024048
:1028D80088600240A0600240B86002401064024074
:1028E8002864024040640240586402407064024018
:1028F8003D00002088640240400F0020A064024090
:1029080000003D20B86402400268134B10B5134024
:10291800CC680A6814434A6914438A691443CA692B
:1029280014430A6A14434A6A14438A6A14434A6B72
:1029380014438A6B22431343036044690A6BCB6ACE
:1029480024F007041343234343610B6943604B6836
:1029580083608B68C36010BD3F801CF00023036058
:1029680043608360C360036143618361C361036241
:1029780043628362C362036343638363704703688C
:1029880011B143F0010301E023F001030360704734
:10299800036811B143F4004301E023F400430360EA
:1029A8007047036811B143F0200301E023F02003CE
:1029B8000360704741607047406880B270470368A1
:1029C80012B143F4002301E023F400230360016102
:1029D8007047036811B143F4802301E023F4802396
:1029E800036070470AB101617047C16070470068B1
:1029F800C0F3C0407047006800F0010070474069AC
:102A080000F0380070470A4B0A4A10B50A4CA04239
:102A18008CBF104618468B004CBF4368036821F0F2
:102A2800F02121F0821119420CBF0020012010BDB5
:102A380000600240006402400F64024010B5084B79
:102A4800084A094CA0428CBF1046184611F0005F96
:102A580021F0F02121F0821114BFC160816010BD06
:102A680000600240006402400F6402400B0611D56A
:102A780043694AB143F080038029436114D0036855
:102A880001F01E0119430EE023F080038029436101
:102A980004D17047802907D0002AF0D1036801F0DB
:102AA8001E0123EA01010160704730B5104B114A3D
:102AB800114D21F0F024A8428CBF15461D4624F084
:102AC800C3132BB1026802F01E0202EAD12202E00F
:102AD800426902F080028B004CBF6B682B6824F0BF
:102AE8008210184002D0101C18BF012030BD00BF52
:102AF80000600240006402400F64024010B5084BB9
:102B0800084A094CA0428CBF1046184611F0005FD5
:102B180021F0F02121F0821114BFC160816010BD45
:102B280000600240006402400F640240044B00222F
:102B38001A605A609A60DA60024A5A61704700BFA8
:102B4800003C0140FFFF7F0083790168027930B5BE
:102B580043B3194B1D68CC4325401D605D6802F1E5
:102B6800804202F59E322C405C601468214311605B
:102B780002689C68D1430C409C60DC682140D960A5
:102B88004179102906D1996811439960D9680A4397
:102B9800DA6030BD01F1804303F59E3319680A43BA
:102BA8001A6030BD02F1804303F59E331A6822EAA9
:102BB8000101196030BD00BF003C014000230C2218
:102BC80003600371427183717047024B1A691043A5
:102BD80018617047003C0140034B5B6918420CBF09
:102BE80000200120704700BF003C0140014B5861A4
:102BF800704700BF003C0140054B1A685B69034001
:102C080004D010420CBF00200120704718467047BE
:102C1800003C0140014B5861704700BF003C014037
:102C2800014BC0B218707047003C0240044B1A6850
:102C380010B142F4807201E022F480721A60704789
:102C4800003C0240044B1A6810B142F4007201E0E3
:102C580022F400721A607047003C0240044B1A6864
:102C680010B142F4806201E022F480621A60704779
:102C7800003C0240024B1A6842F400621A60704736
:102C8800003C0240024B1A6842F480521A607047B6
:102C9800003C0240044B1A69002A04DA034A5A60CD
:102CA80002F188325A607047003C024023016745B0
:102CB800024B1A6942F000421A617047003C024018
:102CC800044B5A69D20704D5034A9A6002F1443288
:102CD8009A607047003C02403B2A1908024B5A6927
:102CE80042F001025A617047003C0240044B1A78D6
:102CF80002F0F3021A701A7810431870704700BF78
:102D0800143C0240024B5869C0F34710704700BF9B
:102D1800003C0240014B188880B27047163C0240C4
:102D2800014B188880B270471A3C0240024B187851
:102D3800AA3818BF01207047153C0240024B18788A
:102D480000F00C00704700BF143C0240044B1A69A5
:102D580009B1104301E022EA00001861704700BF82
:102D6800003C0240034BDB6818420CBF00200120E6
:102D7800704700BF003C0240014BD860704700BF5D
:102D8800003C02400B4BDA68D1030DD4DA68D20656
:102D98000CD4DA6812F0EF0F0AD1DB6813F0020FD7
:102DA8000CBF082007207047012070470520704796
:102DB80006207047003C024007B508238DF807300D
:102DC800FFF7E0FF8DF807009DF80730012BF7D0DB
:102DD8009DF8070003B05DF804FB70B5064641B1E5
:102DE800012908D0022914BF4FF440754FF400752B
:102DF80003E00D4601E04FF48075FFF7DDFF08287A
:102E08001ED1104C236923F44073236121690D43BB
:102E18002561236923F0F8032361236943F0020342
:102E28001E432661236943F480332361FFF7C4FFFF
:102E3800236923F002032361236923F0F803236144
:102E480070BD00BF003C0240FFF7B6BFF8B50746AB
:102E580014461D46FFF7B0FF082814D10A4E3369FF
:102E680023F440733361336943F440733361336946
:102E780043F001033361C7E90045FFF79DFF33695C
:102E880023F001033361F8BD003C024070B50546EC
:102E98000E46FFF791FF082813D10A4C236923F443
:102EA80040732361236943F400732361236943F06A
:102EB800010323612E60FFF77FFF236923F00103DD
:102EC800236170BD003C024070B505460E46FFF711
:102ED80073FF082813D10A4C236923F44073236134
:102EE800236943F480732361236943F00103236159
:102EF8002E80FFF761FF236923F00103236170BD72
:102F0800003C024070B505460E46FFF755FF0828FD
:102F180011D1094C236923F4407323612369236188
:102F2800236943F0010323612E70FFF745FF2369EE
:102F380023F00103236170BD003C024038B504460C
:102F48000D46FFF739FF082809D1054B1A881DB12E
:102F580092B222EA040401E01443A4B21C8038BDF2
:102F6800163C024038B504460D46FFF725FF0828F1
:102F780009D1054B1A881DB192B222EA040401E076
:102F88001443A4B21C8038BD1A3C024010B5044654
:102F9800FFF712FF082804BF014B1C7010BD00BFCB
:102FA800153C024070B504460D461646FFF704FF6F
:102FB800082807D1044B1A7802F00F02144326435D
:102FC80035431D7070BD00BF143C0240034B1A7896
:102FD80042F002021A70FFF7EFBE00BF143C024035
:102FE8004FF0204318B943F2DB021A6003E043F2C2
:102FF800D20243F820204FF02042411C6FF070436A
:1030080042F8213002F5827242F82030704770B5DC
:1030180043688468C16A026844EA0305C3681D43BB
:1030280003691D4343691D4383691D43C3691D43E8
:10303800036A1D43436A1D43836A2B4343EA010520
:10304800036B1D43930003F12043082C1D6003D13B
:103058001C6844F040041C60436B1C689D69254350
:103068005C6845EA04159C6845EA0425DC6845EA7D
:1030780004451C695B6945EA045444EA0364561C28
:103088004FF02043B1F5804F43F8264010D1836BB1
:10309800196898690843596840EA0110996840EA34
:1030A800012019695B6940EA015141EA036101E0C5
:1030B8006FF07041014B43F8221070BD040100A06D
:1030C800022210B542604FF480524262416B4FF4C5
:1030D8000052826200230F22FF2403608360C360D2
:1030E800036143618361C3610362C36203630A606E
:1030F8004A608C60CA600A614A618B61816B0A60B0
:103108004A608C60CA600A614A618B6110BD8000A8
:1031180000F1204019B1036843F0010302E002689E
:10312800014B134003607047FEFF0F0010280CBFCF
:10313800054B064B4022182119605A604FF0FC32AB
:103148009A60DA60704700BF600000A0800000A0AD
:103158004268836870B542EA0304C36844F008040F
:103168001C4303691C43436944EA4324836944EAD2
:103178004334C3699A685D68D968120442EA052530
:103188001A68036A2A4342EA01619A685E681D6800
:10319800120442EA0626DA680368102B0CBF044BB7
:1031A800044B354345EA02621C609960DA6070BDE1
:1031B800600000A0800000A010230360C269002303
:1031C80043608360C360036143618361FC231360D0
:1031D80053609360D360026A136053609360D36056
:1031E800704741B110280CBF074B084B1A6842F0D2
:1031F80004021A60704710280CBF034A034A044BA4
:1032080011680B4013607047600000A0800000A0A8
:10321800FBFF0F0041B110280CBF084B084B1A6880
:1032280042F040021A60704710280CBF034A044A53
:10323800044B11680B401360704700BF600000A08A
:10324800800000A0BFFF0F0010280CBF014B024BED
:1032580058697047600000A0800000A0054B182244
:103268001A6000225A604FF0FC329A60DA601A61E4
:10327800704700BFA00000A0036843F01002436835
:1032880042EA4322836842EA4332144B10B51A607B
:10329800C26891685468090441EA0424116821430A
:1032A800D468026941EA0461996091685468090424
:1032B80041EA042411682143D468426941EA04615F
:1032C800D96091685068090441EA002011680143F7
:1032D800D06841EA0061196110BD00BFA00000A0DC
:1032E800C2680023036043608360FC23136053605B
:1032F8009360D3600269136053609360D36042693E
:10330800136053609360D3607047054B18B11A6817
:1033180042F0040202E01968024A0A401A60704743
:10332800A00000A0FBFF0F005AB1102801D10C4BE0
:1033380004E0B0F5807F0CBF0A4B0B4B5A68114371
:103348000CE010286FEA010101D1054B04E0B0F54B
:10335800807F0CBF034B044B5A681140596070477B
:10336800600000A0800000A0A00000A0102801D1EB
:10337800064B04E0B0F5807F0CBF054B054B5B683E
:103388000B420CBF00200120704700BF600000A066
:10339800800000A0A00000A010286FEA010101D160
:1033A800054B04E0B0F5807F0CBF044B044B5A6812
:1033B80011405960704700BF600000A0800000A065
:1033C800A00000A0102801D1084B04E0B0F5807FD0
:1033D8000CBF074B074B5B6813EA010004D013EAE4
:1033E800D1010CBF00200120704700BF600000A081
:1033F800800000A0A00000A010284FEAD10101D150
:10340800054B04E0B0F5807F0CBF044B044B5A68B1
:1034180022EA010159607047600000A0800000A006
:10342800A00000A008B52C4B984205D10120014608
:1034380000F0CCFF012048E0284B984205D102203B
:10344800012100F0C3FF02203FE0254B984205D13F
:103458000420012100F0BAFF042036E0214B9842F5
:1034680005D10820012100F0B1FF08202DE01E4BF6
:10347800984205D11020012100F0A8FF102024E077
:103488001A4B984205D12020012100F09FFF2020EF
:103498001BE0174B984205D14020012100F096FF10
:1034A800402012E0134B984205D18020012100F002
:1034B8008DFF802009E0104B98420BD14FF48070AB
:1034C800012100F083FF4FF480700021BDE808401F
:1034D80000F07CBF08BD00BF0000024000040240AD
:1034E80000080240000C0240001002400014024094
:1034F80000180240001C0240002002402DE9F04163
:103508000F68002301229A4002EA0705954230D14C
:103518005A00032406689440E443264006600E7966
:10352800D0F800C006FA02F8013E48EA0C0C012E59
:10353800C0F800C014D8866891F805C02640866097
:1035480086680CFA02FC4CEA06068660466826EA9B
:10355800050545608D7946689D40ADB235434560A7
:10356800C5682C40C460CD79C46805FA02F22243CC
:10357800C2600133102BC5D1BDE8F0814FF6FF734F
:1035880003600023037143718371C371704782B074
:103598004FF480330193019B0B430193019BC3615B
:1035A800C161019BC361C3690193C369019302B0FF
:1035B8007047036919420CBF002001207047006959
:1035C80080B27047436919420CBF00200120704740
:1035D800406980B2704701837047418370470AB1E0
:1035E800018370474183704741617047436959407F
:1035F8004161704701F00703C90800EB810010B56D
:103608009B00046A0F21994024EA01010162016AC2
:103618009A401143016210BD08B52020012100F035
:10362800E1FE20200021BDE8084000F0DBBE0F4B82
:103638001A6822F4802222F0F00210B51A6090E88D
:1036480006001C680C43816821431143402A196015
:1036580007D11A6822F480321A601968C2680A43CE
:103668001A601A6842F004021A6010BD000406507D
:103678000023036043608360C3607047024B1A688D
:1036880042F004021A60704700040650044B9A681E
:1036980022F01F029A609A6810439860704700BF32
:1036A80000040650014B5860704700BF00040650E4
:1036B800024B1868C0F30320704700BF000406508F
:1036C800094BDA6802601A6942605A6982609A692D
:1036D800C260DB690361054B5A6942619A6982617C
:1036E800DB69C361704700BF00040650100706502D
:1036F800024B9A6842F480729A6070470004065040
:10370800094A136A036010B59368436013688360BD
:10371800002303F13E0152F8214000EB83010133FD
:10372800362BCC60F5D110BD000406500B4B026857
:1037380010B51A6242689A6082681A601A6842F084
:1037480004021A60002200EB8201CC6802F13E01FB
:103758000132362A43F82140F5D110BD0004065045
:10376800044B1A6810B122F4005201E042F40052EE
:103778001A60704700040650044B1A6810B142F0F2
:10378800080201E022F008021A607047000406509F
:10379800044B1A6A09B1104301E022EA00001862DA
:1037A800704700BF00040650054B10F4805F14BF3B
:1037B8001B685B6A03420CBF00200120704700BFF2
:1037C80000040650014BC04358627047000406507D
:1037D800044B5A6A1B6A134003420CBF00200120A5
:1037E800704700BF00040650014BC0435862704741
:1037F80000040650F0B501F003038FB00025DB008C
:10380800ADF8025007460E4614460195ADF8023051
:10381800FFF702FF8023029302A820230395049355
:10382800FFF705FFBDF8020080B2FFF72FFFB54292
:1038380004D27859FFF736FF0435F8E7FFF758FF49
:103848000820FFF7B1FF019B01330193019BB3F5FA
:10385800803F02D00028F3D100E080B906A8FFF726
:103868002FFF069B1BBA2360079B1BBA6360089B4C
:103878001BBAA360099B1BBA0120E36000E000208B
:103888000FB0F0BD2DE9F04398468FB003F0030365
:103898000026DB00ADF80060ADF802600196ADF8D7
:1038A800003001F00303DB000D4691460746ADF8F2
:1038B8000230169CFFF7B0FE802302934023402D70
:1038C80003934FF02003049302A88ABF4FF4803378
:1038D80005960593FFF7ABFEBDF8020080B2FFF72F
:1038E800D5FE0026AE4204D2B859FFF7DBFE0436F7
:1038F800F8E7FFF7FDFE0820FFF756FF019B0133AD
:103908000193019BB3F5803F02D00028F3D102E078
:1039180008B1002050E0BDF8000080B2FFF7B6FE05
:103928000026464505D259F80600FFF7BBFE0436C7
:10393800F7E7FFF7DDFE002301930820FFF734FFC8
:10394800019B01330193019BB3F5803F02D000280E
:10395800F3D101E00028DCD1BDF8020080B2FFF706
:1039680095FE0026AE4204D2B859FFF79BFE0436F6
:10397800F8E7FFF7BDFE002301930820FFF714FFC7
:10398800019B01330193019BB3F5803F02D00028CE
:10399800F3D101E00028BCD106A8FFF791FE069BF1
:1039A8001BBA2360079B1BBA6360089B1BBAA36002
:1039B800099B1BBA0120E3600FB0BDE8F083F0B5A6
:1039C80001F003038FB00025DB00ADF80250074675
:1039D8000E4614460195ADF80230FFF71DFE202370
:1039E80002A8029503950493FFF721FEBDF8020093
:1039F80080B2FFF74BFEB54204D27859FFF752FE6A
:103A08000435F8E7FFF774FE0820FFF7CDFE019BA9
:103A180001330193019BB3F5803F02D00028F3D115
:103A280000E098B906A8FFF74BFE069B1BBA236077
:103A3800079B1BBA6360089B1BBAA360099B1BBA50
:103A4800E3600A9B1BBA0120236100E000200FB04D
:103A5800F0BD2DE9F04398468FB003F0030300252D
:103A6800DB00ADF80050ADF802500195ADF800301C
:103A780001F00303DB000E4691460746ADF802301D
:103A8800169CFFF7C9FD4023402E03934FF02003F7
:103A9800049302A88CBF4FF480330595029588BF24
:103AA8000593FFF7C4FDBDF8020080B2FFF7EEFDF5
:103AB8000025B54204D27859FFF7F4FD0435F8E73C
:103AC800FFF716FE0820FFF76FFE019B01330193F5
:103AD800019BB3F5803F02D00028F3D102E008B182
:103AE800002053E0BDF8000080B2FFF7CFFD0025AD
:103AF800454505D259F80500FFF7D4FD0435F7E729
:103B0800FFF7F6FD002301930820FFF74DFE019B08
:103B180001330193019BB3F5803F02D00028F3D114
:103B280001E00028DCD1BDF8020080B2FFF7AEFD4D
:103B38000025B54204D27859FFF7B4FD0435F8E7FB
:103B4800FFF7D6FD002301930820FFF72DFE019B08
:103B580001330193019BB3F5803F02D00028F3D1D4
:103B680001E00028BCD106A8FFF7AAFD069B1BBAF6
:103B78002360079B1BBA6360089B1BBAA360099B61
:103B88001BBAE3600A9B1BBA012023610FB0BDE892
:103B9800F083000008B5134B984207D14FF400108A
:103BA800012100F037FC4FF4001014E00E4B98424E
:103BB80007D14FF48000012100F02CFC4FF4800065
:103BC80009E00A4B98420BD14FF40000012100F0A4
:103BD80021FC4FF400000021BDE8084000F01ABCA9
:103BE80008BD00BF0054004000580040005C004081
:103BF800F0B585B004468688324F68460D4600F019
:103C080035FB02982A68304B26F03F063604B0FB95
:103C1800F7F7360C1FFA87FC4CEA0606A6802188BF
:103C280021F001010904090C9A4221800DD85300A2
:103C3800B0FBF3F39BB20CF1010C032B1FFA8CFCC5
:103C480098BF0423A4F820C022E0E9884BF6FF734C
:103C5800994205D102EB4202B0FBF2F39BB206E0B7
:103C680019235343B0FBF3F39BB243F48043C3F3EC
:103C78000B020AB943F001034FF4967257434FF40D
:103C88007A7297FBF2F70137BFB243F400432784F7
:103C9800A38323886989AA889BB243F00103238000
:103CA800238823F4816323F002031B040A431B0CBB
:103CB80013439BB223802A89AB8913439BB2238188
:103CC80005B0F0BD40420F00A086010041F28833E4
:103CD8000360002383804BF6FF72038143814FF416
:103CE8008043C28083817047038819B19BB243F037
:103CF800010303E023F001031B041B0C038070473E
:103D0800838C21B123F010031B041B0C02E09BB22F
:103D180043F0100383847047838C9BB201F00F013A
:103D280023F00F030B4383847047038819B19BB2B8
:103D380043F4807303E023F480731B041B0C03809B
:103D48007047038819B19BB243F4007303E023F46E
:103D580000731B041B0C0380704712B141F0010172
:103D680001E001F0FE0101827047038819B19BB29E
:103D780043F4806303E023F480631B041B0C03807B
:103D8800704783899BB201F0FE0123F0FE030B43C9
:103D980083817047838919B19BB243F0010303E023
:103DA80023F001031B041B0C83817047038819B19E
:103DB8009BB243F0400303E023F040031B041B0CB9
:103DC80003807047038829B16FEA43436FEA53437E
:103DD8009BB201E0C3F30E0303807047038819B94F
:103DE8009BB243F0800303E023F080031B041B0C09
:103DF80003807047B1F5804F838B04D023F4804350
:103E08001B041B0C02E09BB243F48043838370477E
:103E1800B1F5006F038803D19BB243F4006303E05C
:103E280023F400631B041B0C03807047B1F5005F8B
:103E3800038803D19BB243F4005303E023F40053F7
:103E48001B041B0C03807047038819B19BB243F015
:103E5800100303E023F010031B041B0C03807047BE
:103E680001827047008AC0B27047038819B19BB2BB
:103E780043F4805303E023F480531B041B0C03809A
:103E88007047B1F5006F038803D19BB243F4006318
:103E980003E023F400631B041B0C038070470388B2
:103EA80019B19BB243F0200303E023F020031B0465
:103EB8001B0C03807047008BC0F307207047838872
:103EC80019B19BB243F4006303E023F400631B04BD
:103ED8001B0C83807047838819B19BB243F48053CD
:103EE80003E023F480531B041B0C8380704782B0CB
:103EF800002301930190019B19440191019B1888AB
:103F080080B202B0704783889BB20AB1194301E0BE
:103F180023EA010181807047828A008B92B221F0E6
:103F28007F4342EA00401840431A584258417047BC
:103F3800838A008B9BB243EA004020F07F407047A1
:103F480082B00023009301930B0F01900093009B14
:103F580021F07F4113B1019B143302E0019B090C4E
:103F680018330193019B1B6819420CBF00200120E4
:103F780002B07047C94389B2818270478388808ABA
:103F880080B208409BB206D001F0E06113EA11410B
:103F98000CBF002001207047C94389B28182704755
:103FA800014B1860704700BF00300040014B58605B
:103FB800704700BF00300040014B9860704700BF59
:103FC80000300040024B4AF6AA221A60704700BF30
:103FD80000300040024B4CF6CC421A60704700BFDC
:103FE80000300040034BDB6818420CBF0020012062
:103FF800704700BF0030004008B54FF080500121E5
:1040080000F008FA4FF080500021BDE8084000F0A9
:1040180001BA014B1860704720000E42034B1A6822
:1040280022F0E00210431860704700BF00700040A3
:10403800014B1860704700BF10000E42014B18601A
:10404800704700BFA0000E42014B1860704700BFC8
:10405800A4000E42034B1A6822F440421043186031
:10406800704700BF00700040014B1860704700BFE8
:1040780024000E420A4B1A6822F00302104318600B
:10408800084B1A69012942F004021A6101D130BFB4
:1040980000E020BF1A6922F004021A61704700BFCD
:1040A8000070004000ED00E0074B1A6842F004027F
:1040B8001A601A6842F002021A60044B1A6942F048
:1040C80004021A6130BF70470070004000ED00E044
:1040D800034B5B6818420CBF00200120704700BFEB
:1040E80000700040024B1A6842EA8000186070476E
:1040F800007000400B4B1A68002142F001021A6060
:1041080099601A6822F0A16222F480321A60064A85
:104118005A60064AC3F884201A6822F480221A607A
:10412800D960704700380240103000240030002069
:10413800024B00221A701870704700BF0238024004
:10414800034B1A6822F0F80242EAC0001860704770
:1041580000380240014B1860704700BF000047421A
:10416800064B002201281A701A7002D0042802D0C7
:1041780070471870704705221A70704770380240EF
:10418800014B1860704700BF800E474210B5029C73
:1041980040EA046001435B08013B41EA821242EABB
:1041A8000344014B5C6010BD00380240014B1860AD
:1041B800704700BF600047420907034B41EA80107F
:1041C800C3F88400704700BF00380240014B1860F4
:1041D800704700BF68004742014B1860704700BF36
:1041E8004C004742034B9A6822F0EC6211430843A3
:1041F8009860704700380240034B9A6822F0784272
:10420800114308439860704700380240034B9A688E
:1042180022F0030210439860704700BF0038024044
:10422800024B986800F00C00704700BF003802404D
:10423800034B9A6822F0F00210439860704700BF61
:1042480000380240034B9A6822F4E0521043986009
:10425800704700BF00380240034B9A6822F460425E
:1042680042EAC00098607047003802401D4B9A68C7
:1042780002F00C02042A10B503D0082A03D01A4B06
:1042880018E01A4B16E059685A6811F4800F5968FB
:1042980014BF164B144B02F03F02B3FBF2F3114A62
:1042A8005268C2F30142C1F3881101324B435200F4
:1042B800B3FBF2F30B4903608B680D4AC3F3031396
:1042C800D45C0368E34043608C68C4F38224145DC3
:1042D80023FA04F484608968C1F34231525CD34004
:1042E800C36010BD003802400024F40000127A00B8
:1042F8001800002000F44073B3F5407F084B08D144
:10430800996820F0704221F4F81122F440720A43AF
:104318009A601A6FC0F30B0010431867704700BF0C
:1043280000380240014B1860704700BF3C0E4742FE
:10433800014B1860704700BF400E4742014B1860A0
:10434800704700BF5C014742014B1860704700BFCF
:10435800E0114742044B1A6B09B1104301E022EA0D
:1043680000001863704700BF00380240044B5A6BC6
:1043780009B1104301E022EA00005863704700BF0A
:1043880000380240044B9A6B09B1104301E022EA5D
:1043980000009863704700BF00380240044B1A6C55
:1043A80009B1104301E022EA00001864704700BF19
:1043B80000380240044B5A6C09B1104301E022EA6C
:1043C80000005864704700BF00380240044B1A6967
:1043D80009B1104301E022EA00001861704700BFEC
:1043E80000380240044B5A6909B1104301E022EA3F
:1043F80000005861704700BF00380240044B9A69BA
:1044080009B1104301E022EA00009861704700BF3B
:1044180000380240044B1A6A09B1104301E022EA4D
:1044280000001862704700BF00380240044B5A6A07
:1044380009B1104301E022EA00005862704700BF4A
:1044480000380240044B1A6D09B1104301E022EA1A
:1044580000001865704700BF00380240044B5A6DD1
:1044680009B1104301E022EA00005865704700BF17
:1044780000380240044B9A6D09B1104301E022EA6A
:1044880000009865704700BF00380240044B1A6E60
:1044980009B1104301E022EA00001866704700BF26
:1044A80000380240044B5A6E09B1104301E022EA79
:1044B80000005866704700BF00380240044B1A7865
:1044C80009B1104301E022EA00001870704700BFEC
:1044D8000D3802404309012B074A01D1136803E054
:1044E800022B0CBF136F536F00F01F0023FA00F06C
:1044F80000F00100704700BF0038024007B50023F4
:1045080001933120FFF7E6FF019B01330193019BE3
:10451800B3F5A06F01D00028F3D03120FFF7DAFF00
:10452800003018BF012003B05DF804FB024B5A6F3E
:1045380042F080725A67704700380240034BDB68CC
:1045480018420CBF00200120704700BF003802400D
:10455800014B1870704700BF0E38024008B5402064
:104568000121FFF73FFF40200021BDE80840FFF789
:1045780039BF054B1A6810B142F0040201E022F07D
:1045880004021A60704700BF00080650014B986883
:10459800704700BF00080650044B1A6810B142F07B
:1045A800080201E022F008021A607047000806506D
:1045B800034B5B6818420CBF00200120704700BF06
:1045C80000080650024B6FEA00105860704700BFA1
:1045D80000080650034B5B6818420CBF00200120FE
:1045E800704700BF00080650C043024BC0B2586075
:1045F800704700BF0008065000230928DAB203F10B
:10460800010302D90A38C0B2F7E740EA0210C0B283
:104618007047030903EB830300F00F0000EB43002E
:10462800C0B2704700217F22FF2380E80E00704748
:10463800044B08B1FF2202E0CA225A6253225A628E
:10464800704700BF0028004082B0002301930D4B43
:10465800DA68520613D44FF0FF32DA60094BDA6891
:104668000199013101910199B1F5803F02F04002B1
:1046780001D0002AF2D0D868C0F3801000E00120F1
:1046880002B0704700280040024BDA6822F080022E
:10469800DA6070470028004038B50F4CCA236362BF
:1046A800532363620546FFF7CFFF88B1A36823F061
:1046B8004003A360A2682B681343A360AB6823611F
:1046C80023696A6843EA02432361FFF7DDFF01209B
:1046D800014BFF225A6238BD0028004082B00023F7
:1046E80001930E4BCA225A6253225A62DA6822F0A8
:1046F800A002DA60094BDA68019901310191019948
:10470800B1F5003F02F0200201D0002AF2D0D868AB
:10471800FF22C0F340105A6202B0704700280040E0
:1047280037B5204CCA230025019563625323636281
:10473800FFF78AFF08B900202FE042F20113256035
:104748006360A36803F00703A360164BD968019A56
:1047580001320192019AB2F5803F01F004011A4634
:1047680001D00029F1D0D2680E4B5207E3D59A68E0
:104778004FF6FF7100229A6059610B4919619A61DD
:10478800DA611A62DA62DA635A649A64DA601A647D
:10479800FFF7A4FF003018BF0120024BFF225A6226
:1047A80003B030BD00280040FF007F0038B50B4C37
:1047B800CA236362532363620546FFF745FF50B17E
:1047C800A36815B143F0100301E023F01003A360C0
:1047D800FFF75AFF0120FF23636238BD002800401D
:1047E800074BCA225A6253225A629A6810B142F0A1
:1047F800200201E002F0DF029A60FF225A6270474D
:1048080000280040244A0B7892682DE9F0410C46B4
:104818004F788E7820B912F040022AD1CA7028E069
:1048280012F0400200D1CA703F0247EA0343E5781C
:104838001E4346EA0545184CCA2363625323636244
:10484800FFF702FF80B105F07F3020F0FE402060C6
:10485800FFF71AFFA3689B0605D4FFF73FFF003058
:1048680018BF012000E001200B4BFF225A62BDE86F
:10487800F0811846FFF7C0FE80463846FFF7BCFEB9
:1048880007463046FFF7B8FEE57840EA054040EABB
:10489800084545EA0725CEE7002800400023C370F5
:1048A80003704370837070470F4B1B6870B5C3F378
:1048B8000542C3F3062603F07F0503F480031B0CAF
:1048C8000C460A704E708D70CB7058B91046FFF7C1
:1048D800A0FE20703046FFF79CFE60702846FFF768
:1048E80098FEA07070BD00BF00280040014B986A78
:1048F8005B687047002800402DE9F0410C464B7872
:10490800CA788F780E78002834D1D90603D523F0D9
:1049180010030A3363701046FFF76EFE8046607816
:10492800FFF76AFE04463846FFF766FE40EA46305F
:1049380040EA084545EA0425124CCA23636253231A
:104948006362FFF781FE80B125F07F4323F0C00347
:104958006360FFF799FEA3689B0605D4FFF7BEFEC8
:10496800003018BF012000E00120064BFF225A62E8
:10497800BDE8F0811D0245EA02453D4345EA46355A
:10498800DAE700BF002800400123037083704370FA
:104998000023C37070470F4B5B6870B5C3F30742C1
:1049A800C3F3042603F03F05C3F342330C46CA7031
:1049B8004E708D700B7058B91046FFF72AFEE070E4
:1049C8003046FFF726FE60702846FFF722FEA070EB
:1049D80070BD00BF002800402DE9F84F1446264A54
:1049E8006668A56894F80280237894F80190277B7C
:1049F80092688A4620B912F0400220D1E2701EE087
:104A080012F0400200D1E270354345EA080848EA4E
:104A18000343E07843EA092949EA004040EA07608D
:104A2800154BCA225A6253225A62BAF5807F4FF058
:104A3800FF020CBFD86118625A62BDE8F88F1846A9
:104A4800FFF7DAFD83464846FFF7D6FD8146404624
:104A5800FFF7D2FD80463846FFF7CEFDE3783543B1
:104A680045EA034343EA080343EA0B4343EA0923BD
:104A780043EA0060D4E700BF002800400023012279
:104A8800C370037043708370836002734360704720
:104A9800F8B5174BB1F5807F0CBFDB691B6A14466C
:104AA80003F48001090CC3F30542C3F3062703F09E
:104AB8007F06C3F30565E17003F0804103F080339E
:104AC80022706770A6702573A160636078B910467C
:104AD800FFF79FFD20703846FFF79BFD607030465A
:104AE800FFF797FDA0702846FFF793FD2073F8BDE8
:104AF8000028004082B000230193144BCA225A6256
:104B080053225A629A6819B110439860012017E03D
:104B180022EA00029A60000A0C4BDA680199013116
:104B280001910199B1F5803F00EA020205D1DB68E5
:104B380018420CBF0020012002E0002AECD0F6E762
:104B4800024BFF225A6202B0704700BF00280040A3
:104B580010B5074BCA245C620A43B0F5807F4FF05A
:104B680053045C620CBF5A649A64FF225A6210BDF7
:104B780000280040044BB0F5807F0CBF586C986C3F
:104B8800C0F30E00704700BF00280040074BCA2240
:104B98005A6253225A629A6822F007029A609A6807
:104BA8001043FF2298605A62704700BF00280040F7
:104BB800044BCA225A6253225A62FF2258615A622F
:104BC800704700BF00280040014B586980B2704709
:104BD8000028004082B000230193124BCA225A6277
:104BE80053225A629A6820B142F480629A60012086
:104BF80012E022F480629A600A4BDA680199013166
:104C080001910199B1F5803F02F0040201D0002A18
:104C1800F2D0D868C0F38000024BFF225A6202B07B
:104C2800704700BF00280040074BCA225A6253222F
:104C38005A629A6822F480229A609A68114308435B
:104C4800FF2298605A62704700280040024B98681B
:104C580000F48020704700BF00280040074BCA229C
:104C68005A6253225A629A6822F4E0029A609A6859
:104C780011430843FF2298605A6270470028004099
:104C880070B5094CCA2363625323636205460E4616
:104C9800FFF7DAFC20B13543A561FFF7F5FC0120E9
:104CA800FF23636270BD00BF0028004038B50B4C7D
:104CB800CA236362532363620546FFF7C5FC50B1FC
:104CC800A36815B143F0800301E023F08003A360DB
:104CD800FFF7DAFC0120FF23636238BD002800409B
:104CE800074BCA225A6253225A629A6810B142F498
:104CF800000201E022F400029A60FF225A62704723
:104D080000280040074BCA225A6253225A629A6806
:104D180022F400229A609A681043FF2298605A622F
:104D2800704700BF002800400E4B10B5CA245C62D3
:104D380053245C62DB68DB0306D50B4B094CE46843
:104D4800E40301D5013BF9D1064BDC68E40304D444
:104D580011430843D863012000E00020FF225A6273
:104D680010BD00BF0028004001000200084B9A68EF
:104D780022F4006222F0080209B142F400621043F2
:104D8800CA225A6253225A62FF2298605A627047B6
:104D98000028004038B515461A4A136B526B0C466A
:104DA800C3F305412170C3F30621617003F07F014D
:104DB80003F480031B0CE3700023A170EB70C2F3B3
:104DC80004236B7002F03F03C2F34232AB702A70C7
:104DD800B8B92078FFF71DFC20706078FFF719FC40
:104DE8006070A078FFF715FCA0706878FFF711FCD9
:104DF8006870A878FFF70DFCA8702878FFF709FC01
:104E0800287038BD00280040014B986B704700BFE0
:104E180000280040044B40001A6C11B922EA000037
:104E280000E010431864704700280040044B1A6CD7
:104E380009B1104301E022EA00001864704700BF7E
:104E480000280040044B1A6C22F4C0521A641A6CF1
:104E580010431864704700BF00280040044B1A6CC8
:104E680022F4E0621A641A6C10431864704700BF99
:104E780000280040044B1A6C22F4C0421A641A6CD1
:104E880010431864704700BF00280040044B1A6C98
:104E980010B142F0800201E022F080021A647047EB
:104EA80000280040044B1A6C10B122F4004201E0C3
:104EB80042F400421A6470470028004082B0002380
:104EC8000193054B0193019B03EB80000190019B2B
:104ED800196002B0704700BF5028004082B000231C
:104EE8000193054B0193019B03EB80000190019B0B
:104EF800186802B0704700BF50280040044B1A6C75
:104F080022F480321A641A6C10431864704700BF88
:104F180000280040044B1A6C22F400321A641A6C00
:104F280010431864704700BF00280040044B1A6CF7
:104F380022F480221A641A6C10431864704700BF68
:104F480000280040134BCA2210B55A6253225A62F5
:104F5800DB681C0707D541F201030E4AD268120725
:104F680001D5013BF9D10B4BDA6812F008020AD1DE
:104F78009C68E40609D40843D862FFF7AFFB003009
:104F880018BF012002E0002000E01046014BFF227C
:104F98005A6210BD002800400D4BCA225A625322A3
:104FA8005A6220F0040200F0040029B199680A430B
:104FB8009A601A6C104306E0996821EA02029A6026
:104FC8001A6C22EA00001864014BFF225A627047EB
:104FD80000280040074BDB6823F07F4323F47E035F
:104FE80023F4404323F0800303420CBF0020012038
:104FF800704700BF00280040054BDA6880B240F0D7
:10500800800002F0800262EA0002DA60704700BFA6
:10501800002800400A4B1A6C10B59C68D96802F049
:10502800040202EAD03200EA0403134306D08BB22A
:1050380013EA10130CBF0020012010BD184610BD44
:1050480000280040054BDA68C0F30F1040F08000DC
:1050580002F0800262EA0002DA607047002800402D
:1050680008B54FF400600121FFF7E0F94FF4006044
:105078000021BDE80840FFF7D9B98168094A10B591
:10508800446853680C43C1680C4301680C430169C8
:10509800007D23F4FD43214323F07F030B430343A7
:1050A800536010BD002C014000230375036043606A
:1050B8008360C36003617047014B1860704700BF8D
:1050C800A0802542014B1860704700BF002C0140AA
:1050D800024B186800F00300704700BF002C014025
:1050E800094B026810B59A6041688468DA680C4315
:1050F800C168006922F4FF62214322F007020143DC
:105108000A43DA6010BD00BF002C01400023036091
:1051180043608360C36003617047024B1869C0B283
:10512800704700BF002C014082B000230193034B5D
:1051380003440193019B186802B07047142C014086
:10514800094B026810B55A6242689A62C26881685F
:10515800DC6A1143026940690A4324F0F7040243F8
:105168002243DA6210BD00BF002C01404FF0FF332C
:105178000360002343608360C36003614361704739
:10518800014B186B704700BF002C0140014BD3F84E
:1051980080007047002C0140014BC3F88000704725
:1051A800002C0140014B986C704700BF002C014057
:1051B800014B1860704700BFA0852542014B18605D
:1051C800704700BFA4852542014B1860704700BF97
:1051D800A8852542014B1860704700BFAC85254261
:1051E800014B1860704700BFAC812542014B186025
:1051F800704700BFB081254200F00100024B80F0EB
:1052080001001860704700BFB4812542014B186047
:10521800704700BFB8812542014B1860704700BF36
:105228008C852542044BDA6B09B1104301E022EA70
:105238000000D863704700BF002C0140034B5B6B34
:1052480018420CBF00200120704700BF002C01400D
:10525800014B9863704700BF002C0140034B5B6B08
:1052680018420CBF00200120704700BF002C0140ED
:10527800014B9863704700BF002C014008B5254BCF
:10528800984207D14FF480500121FFF7CFF84FF42F
:10529800805039E0204B984207D14FF480400121DB
:1052A800FFF7B8F84FF4804009E01C4B98420BD147
:1052B8004FF400400121FFF7ADF84FF40040002102
:1052C800BDE80840FFF7A6B8154B984207D14FF440
:1052D80000500121FFF7AAF84FF4005014E0114BD9
:1052E800984207D14FF480100121FFF79FF84FF43F
:1052F800801009E00C4B98420BD14FF400100121AB
:10530800FFF794F84FF400100021BDE80840FFF7BC
:105318008DB808BD0030014000380040003C004016
:105328000034014000500140005401400B880288BD
:1053380010B54C8823438C882343CC8823430C899D
:1053480023434C8923438C892343CC8902F441525B
:10535800234313439BB20380838B23F400631B0412
:105368001B0C83830B8A038210BD838B23F47B631E
:1053780023F00F031B041B0C8383022303848B6815
:10538800F0B5858B022BADB238D08A88002A294A1D
:10539800946814BF02260126240203D5946824F4D5
:1053A80000049460D2F88440D2F884705268DFF820
:1053B80088C002F03F02BCFBF2F2C4F388145443E5
:1053C800C7F30272B4FBF2F4CA88B2F5007F18BFC3
:1053D80076014FF00A020CBF240AB4FBF6F46243CC
:1053E800B2FBF3F305330A229BB2B3FBF2F303F0EB
:1053F80001021202C3F34F0392B200E000229C1E86
:10540800A4B2FE2C28BF0022CC8828BF0223134355
:1054180023430A889BB2038445EA02034A8843F47B
:10542800006313438A8813438A8913439BB2838397
:10543800F0BD00BF0038024000127A00002303804C
:1054480043808380C380038143818381C381072391
:105458000382704700230222038043808380C38035
:10546800826083817047038819B19BB243F040037F
:1054780003E023F040031B041B0C03807047838B5D
:1054880019B19BB243F4806303E023F480631B04E7
:105498001B0C83837047038823F400631B041B0CD5
:1054A800038003889BB2194301807047B1F5804F90
:1054B800038803D19BB243F4804303E023F4804381
:1054C8001B041B0C038070474FF6FF639942038847
:1054D80003D09BB243F4807303E023F480731B046E
:1054E8001B0C03807047838819B19BB243F00403F7
:1054F80003E023F004031B041B0C8380704783889C
:1055080019B19BB243F0100303E023F010031B040E
:105518001B0C83807047838B0A8823F47B6323F0FA
:105528000F031B041B0C838302230384838B10B596
:105538004C889BB223438C88898922F4007243F4F7
:10554800006392B22343002A43EA010314BF0022F6
:105558004FF480729BB21343838310BD808980B25D
:10556800704781817047038819B19BB243F4005397
:1055780003E023F400531B041B0C038070470388CB
:105588009BB243F4805303807047012914BF008BFA
:10559800808A80B27047008A80B2704783889BB245
:1055A8000AB1194301E023EA010181807047090922
:1055B80001238B409BB21AB1828892B2134303E055
:1055C800828892B222EA03038380704703891942D2
:1055D8000CBF002001207047C94389B20181704780
:1055E80010B58488008901F00F02012380B203FA04
:1055F80002F21040A4B205D009098B401C420CBF2E
:105608000020012010BD01F00F0101238B40DB4376
:105618009BB20381704700BF08B54FF48040012159
:10562800FEF704FF4FF480400021BDE80840FEF774
:10563800FDBE014B186070470038014001F00303BC
:1056480001F0FC0101F1804101F59C3110B59B008E
:105658008C680F229A4024EA02028A608A6898407D
:1056680002438A6010BD014B18607047DC00274276
:10567800014B1860704700BF00042742024B186AAC
:10568800C0F30020704700BF0038014030B5048CDB
:1056980024F001042404240C0484058B048CADB28A
:1056A80025F0F305A4B22A4324F00A0442EA0313BE
:1056B80044F001049DB221430583018430BD30B517
:1056C800048C24F010042404240C0484058B048C1A
:1056D80025F44075A4B22D052D0D24F0A00444F046
:1056E800100445EA022242EA033344EA01119BB25C
:1056F8008CB20383048430BD08B5474B984205D16A
:1057080001200146FEF792FE01203DE0B0F1804FF6
:1057180005D101200146FEF77DFE012076E03F4BD2
:10572800984205D102200121FEF774FE02206DE0A7
:105738003B4B984205D104200121FEF76BFE042063
:1057480064E0384B984205D108200121FEF762FE3B
:1057580008205BE0344B984205D110200121FEF768
:1057680059FE102052E0314B984205D120200121EA
:10577800FEF750FE202049E02D4B984209D1022027
:105788000121FEF753FE02200021BDE80840FEF784
:105798004DBE284B984207D14FF480300121FEF7C7
:1057A80045FE4FF48030EFE7234B984207D14FF482
:1057B80000300121FEF73AFE4FF40030E4E71F4BBA
:1057C800984207D14FF480200121FEF72FFE4FF4B5
:1057D8008020D9E71A4B984205D140200121FEF7D5
:1057E80019FE402012E0174B984205D18020012174
:1057F800FEF710FE802009E0134B98420BD14FF4BE
:1058080080700121FEF706FE4FF480700021BDE88C
:105818000840FEF7FFBD08BD00000140000400403D
:1058280000080040000C0040001000400014004038
:10583800000401400040014000440140004801408C
:1058480000180040001C0040002000401C4A03884B
:1058580090429BB212D002F5806290420ED0B0F115
:10586800804F0BD0A2F58032904207D002F58062BB
:10587800904203D002F58062904203D14A8823F017
:10588800700313430F4A904208D002F58062904299
:1058980004D023F440730A899BB2134303804B68F6
:1058A800C3620B880385064B984203D003F58063D7
:1058B800984201D18B7A038601238382704700BF07
:1058C80000000140001000404FF0FF334360002308
:1058D8000380038143808372704701858282704709
:1058E800038823F070031B041B0C194301807047C5
:1058F80041627047C1627047406A7047008D80B24C
:105908007047038819B19BB243F0020303E023F008
:1059180002031B041B0C03807047038819B19BB258
:1059280043F0040303E023F004031B041B0C03806F
:105938007047038819B19BB243F0800303E023F05A
:1059480080031B041B0C03807047038823F00803A3
:105958001B041B0C038003889BB21943018070470A
:10596800038823F440731B041B0C038003889BB239
:10597800194301807047038819B19BB243F00103B2
:1059880003E023F001031B041B0C03807047038C06
:1059980023F001031B041B0C038470B5038C84885B
:1059A800028B0D884E8822F073021204120C2A43CF
:1059B8008D8923F002031B043543ADB21B0C2B4326
:1059C8000E4DA842A4B203D005F58065A8420ED1B9
:1059D800CD894E8A23F008032B438D8823F00403D6
:1059E8002B430D8A354324F44074ADB22C43848094
:1059F80002838A684263038470BD00BF00000140CF
:105A0800038C23F010031B041B0C0384038C828873
:105A180030B5048B0D8824F4E6442404240C23F0C8
:105A2800200344EA05241B048D891B0C43EA051353
:105A38004D8843EA0513134DA84292B2A4B29BB213
:105A480003D005F58065A84215D1CD8923F08003E0
:105A58009BB243EA05134FF6BF751D408B8845EA94
:105A680003130D8A22F4406242EA85024D8A42EA13
:105A780085029BB292B282808A680483826303841F
:105A880030BD00BF00000140038C23F480731B0469
:105A98001B0C0384038C828830B5848B0D8824F01A
:105AA80073042404240C23F400732C431B048D89F1
:105AB8001B0C43EA05234D8843EA0523124DA842EF
:105AC80092B29BB203D005F58065A84215D1CD8965
